{
  "_format": "hh-sol-artifact-1",
  "contractName": "PortView",
  "sourceName": "contracts/PortView.sol",
  "abi": [
    {
      "inputs": [
        {
          "internalType": "address",
          "name": "_admin",
          "type": "address"
        },
        {
          "internalType": "uint256",
          "name": "maxPayment",
          "type": "uint256"
        }
      ],
      "stateMutability": "nonpayable",
      "type": "constructor"
    },
    {
      "inputs": [],
      "name": "admin",
      "outputs": [
        {
          "internalType": "address",
          "name": "",
          "type": "address"
        }
      ],
      "stateMutability": "view",
      "type": "function"
    },
    {
      "inputs": [],
      "name": "policy",
      "outputs": [
        {
          "internalType": "contract PolicyEngine",
          "name": "",
          "type": "address"
        }
      ],
      "stateMutability": "view",
      "type": "function"
    },
    {
      "inputs": [],
      "name": "scheduler",
      "outputs": [
        {
          "internalType": "contract PaymentScheduler",
          "name": "",
          "type": "address"
        }
      ],
      "stateMutability": "view",
      "type": "function"
    },
    {
      "inputs": [],
      "name": "vault",
      "outputs": [
        {
          "internalType": "contract TreasuryVault",
          "name": "",
          "type": "address"
        }
      ],
      "stateMutability": "view",
      "type": "function"
    }
  ],
  "bytecode": "0x608060405234801561001057600080fd5b5060405161268e38038061268e833981810160405281019061003291906102db565b81600360006101000a81548173ffffffffffffffffffffffffffffffffffffffff021916908373ffffffffffffffffffffffffffffffffffffffff16021790555081816040516100819061021b565b61008c929190610339565b604051809103906000f0801580156100a8573d6000803e3d6000fd5b50600160006101000a81548173ffffffffffffffffffffffffffffffffffffffff021916908373ffffffffffffffffffffffffffffffffffffffff160217905550816040516100f690610228565b6101009190610362565b604051809103906000f08015801561011c573d6000803e3d6000fd5b506000806101000a81548173ffffffffffffffffffffffffffffffffffffffff021916908373ffffffffffffffffffffffffffffffffffffffff16021790555060008054906101000a900473ffffffffffffffffffffffffffffffffffffffff16600160009054906101000a900473ffffffffffffffffffffffffffffffffffffffff166040516101ac90610235565b6101b792919061037d565b604051809103906000f0801580156101d3573d6000803e3d6000fd5b50600260006101000a81548173ffffffffffffffffffffffffffffffffffffffff021916908373ffffffffffffffffffffffffffffffffffffffff16021790555050506103a6565b6105c88061069883390190565b610c0b80610c6083390190565b610e238061186b83390190565b600080fd5b600073ffffffffffffffffffffffffffffffffffffffff82169050919050565b600061027282610247565b9050919050565b61028281610267565b811461028d57600080fd5b50565b60008151905061029f81610279565b92915050565b6000819050919050565b6102b8816102a5565b81146102c357600080fd5b50565b6000815190506102d5816102af565b92915050565b600080604083850312156102f2576102f1610242565b5b600061030085828601610290565b9250506020610311858286016102c6565b9150509250929050565b61032481610267565b82525050565b610333816102a5565b82525050565b600060408201905061034e600083018561031b565b61035b602083018461032a565b9392505050565b6000602082019050610377600083018461031b565b92915050565b6000604082019050610392600083018561031b565b61039f602083018461031b565b9392505050565b6102e3806103b56000396000f3fe608060405234801561001057600080fd5b506004361061004c5760003560e01c80630505c8c914610051578063d1ad17bf1461006f578063f851a4401461008d578063fbfa77cf146100ab575b600080fd5b6100596100c9565b60405161006691906101de565b60405180910390f35b6100776100ef565b604051610084919061021a565b60405180910390f35b610095610115565b6040516100a29190610256565b60405180910390f35b6100b361013b565b6040516100c09190610292565b60405180910390f35b600160009054906101000a900473ffffffffffffffffffffffffffffffffffffffff1681565b600260009054906101000a900473ffffffffffffffffffffffffffffffffffffffff1681565b600360009054906101000a900473ffffffffffffffffffffffffffffffffffffffff1681565b60008054906101000a900473ffffffffffffffffffffffffffffffffffffffff1681565b600073ffffffffffffffffffffffffffffffffffffffff82169050919050565b6000819050919050565b60006101a461019f61019a8461015f565b61017f565b61015f565b9050919050565b60006101b682610189565b9050919050565b60006101c8826101ab565b9050919050565b6101d8816101bd565b82525050565b60006020820190506101f360008301846101cf565b92915050565b6000610204826101ab565b9050919050565b610214816101f9565b82525050565b600060208201905061022f600083018461020b565b92915050565b60006102408261015f565b9050919050565b61025081610235565b82525050565b600060208201905061026b6000830184610247565b92915050565b600061027c826101ab565b9050919050565b61028c81610271565b82525050565b60006020820190506102a76000830184610283565b9291505056fea26469706673582212202667f5a148095dad3a7845f758f15c198884c4a3e12cdf8de0d8af9a9503c8c164736f6c63430008140033608060405234801561001057600080fd5b506040516105c83803806105c883398181016040528101906100329190610119565b816000806101000a81548173ffffffffffffffffffffffffffffffffffffffff021916908373ffffffffffffffffffffffffffffffffffffffff160217905550806001819055505050610159565b600080fd5b600073ffffffffffffffffffffffffffffffffffffffff82169050919050565b60006100b082610085565b9050919050565b6100c0816100a5565b81146100cb57600080fd5b50565b6000815190506100dd816100b7565b92915050565b6000819050919050565b6100f6816100e3565b811461010157600080fd5b50565b600081519050610113816100ed565b92915050565b600080604083850312156101305761012f610080565b5b600061013e858286016100ce565b925050602061014f85828601610104565b9150509250929050565b610460806101686000396000f3fe608060405234801561001057600080fd5b506004361061004c5760003560e01c8063566b6fa31461005157806376313e561461006d5780637dd6eb341461009d578063f851a440146100bb575b600080fd5b61006b600480360381019061006691906102c2565b6100d9565b005b6100876004803603810190610082919061034d565b6101a2565b60405161009491906103bb565b60405180910390f35b6100a561025d565b6040516100b291906103e5565b60405180910390f35b6100c3610263565b6040516100d0919061040f565b60405180910390f35b60008054906101000a900473ffffffffffffffffffffffffffffffffffffffff1673ffffffffffffffffffffffffffffffffffffffff163373ffffffffffffffffffffffffffffffffffffffff161461015e576040517f7bfa4b9f00000000000000000000000000000000000000000000000000000000815260040160405180910390fd5b60008103610198576040517f2c5211c600000000000000000000000000000000000000000000000000000000815260040160405180910390fd5b8060018190555050565b60008073ffffffffffffffffffffffffffffffffffffffff168273ffffffffffffffffffffffffffffffffffffffff16036101dc57600080fd5b60008303610216576040517f2c5211c600000000000000000000000000000000000000000000000000000000815260040160405180910390fd5b600154831115610252576040517f1c2d69bc00000000000000000000000000000000000000000000000000000000815260040160405180910390fd5b600190509392505050565b60015481565b60008054906101000a900473ffffffffffffffffffffffffffffffffffffffff1681565b600080fd5b6000819050919050565b61029f8161028c565b81146102aa57600080fd5b50565b6000813590506102bc81610296565b92915050565b6000602082840312156102d8576102d7610287565b5b60006102e6848285016102ad565b91505092915050565b600073ffffffffffffffffffffffffffffffffffffffff82169050919050565b600061031a826102ef565b9050919050565b61032a8161030f565b811461033557600080fd5b50565b60008135905061034781610321565b92915050565b60008060006060848603121561036657610365610287565b5b600061037486828701610338565b9350506020610385868287016102ad565b925050604061039686828701610338565b9150509250925092565b60008115159050919050565b6103b5816103a0565b82525050565b60006020820190506103d060008301846103ac565b92915050565b6103df8161028c565b82525050565b60006020820190506103fa60008301846103d6565b92915050565b6104098161030f565b82525050565b60006020820190506104246000830184610400565b9291505056fea2646970667358221220824f71078e994765e14394e16985dd0fd81d06d4618621e64b1d795af1d8beb864736f6c63430008140033608060405234801561001057600080fd5b50604051610c0b380380610c0b83398181016040528101906100329190610141565b600073ffffffffffffffffffffffffffffffffffffffff168173ffffffffffffffffffffffffffffffffffffffff1603610098576040517fe6c4247b00000000000000000000000000000000000000000000000000000000815260040160405180910390fd5b806000806101000a81548173ffffffffffffffffffffffffffffffffffffffff021916908373ffffffffffffffffffffffffffffffffffffffff1602179055505061016e565b600080fd5b600073ffffffffffffffffffffffffffffffffffffffff82169050919050565b600061010e826100e3565b9050919050565b61011e81610103565b811461012957600080fd5b50565b60008151905061013b81610115565b92915050565b600060208284031215610157576101566100de565b5b60006101658482850161012c565b91505092915050565b610a8e8061017d6000396000f3fe608060405234801561001057600080fd5b50600436106100625760003560e01c806347e7ef241461006757806368a911d1146100835780638bfb07c91461009f578063a748e0f3146100bb578063f851a440146100eb578063f8b2cb4f14610109575b600080fd5b610081600480360381019061007c91906107be565b610139565b005b61009d60048036038101906100989190610836565b610299565b005b6100b960048036038101906100b49190610876565b6103df565b005b6100d560048036038101906100d091906108c9565b6105f9565b6040516100e29190610905565b60405180910390f35b6100f3610619565b604051610100919061092f565b60405180910390f35b610123600480360381019061011e91906108c9565b61063d565b6040516101309190610959565b60405180910390f35b600073ffffffffffffffffffffffffffffffffffffffff168273ffffffffffffffffffffffffffffffffffffffff160361019f576040517fe6c4247b00000000000000000000000000000000000000000000000000000000815260040160405180910390fd5b600081036101d9576040517f2c5211c600000000000000000000000000000000000000000000000000000000815260040160405180910390fd5b60008273ffffffffffffffffffffffffffffffffffffffff166323b872dd3330856040518463ffffffff1660e01b815260040161021893929190610974565b6020604051808303816000875af1158015610237573d6000803e3d6000fd5b505050506040513d601f19601f8201168201806040525081019061025b91906109c0565b905080610294576040517f90b8ec1800000000000000000000000000000000000000000000000000000000815260040160405180910390fd5b505050565b60008054906101000a900473ffffffffffffffffffffffffffffffffffffffff1673ffffffffffffffffffffffffffffffffffffffff163373ffffffffffffffffffffffffffffffffffffffff161461031e576040517f7bfa4b9f00000000000000000000000000000000000000000000000000000000815260040160405180910390fd5b600073ffffffffffffffffffffffffffffffffffffffff168273ffffffffffffffffffffffffffffffffffffffff1603610384576040517fe6c4247b00000000000000000000000000000000000000000000000000000000815260040160405180910390fd5b80600160008473ffffffffffffffffffffffffffffffffffffffff1673ffffffffffffffffffffffffffffffffffffffff16815260200190815260200160002060006101000a81548160ff0219169083151502179055505050565b600160003373ffffffffffffffffffffffffffffffffffffffff1673ffffffffffffffffffffffffffffffffffffffff16815260200190815260200160002060009054906101000a900460ff16610462576040517f6cb4078200000000000000000000000000000000000000000000000000000000815260040160405180910390fd5b600073ffffffffffffffffffffffffffffffffffffffff168373ffffffffffffffffffffffffffffffffffffffff1614806104c95750600073ffffffffffffffffffffffffffffffffffffffff168273ffffffffffffffffffffffffffffffffffffffff16145b15610500576040517fe6c4247b00000000000000000000000000000000000000000000000000000000815260040160405180910390fd5b6000810361053a576040517f2c5211c600000000000000000000000000000000000000000000000000000000815260040160405180910390fd5b60008373ffffffffffffffffffffffffffffffffffffffff1663a9059cbb84846040518363ffffffff1660e01b81526004016105779291906109ed565b6020604051808303816000875af1158015610596573d6000803e3d6000fd5b505050506040513d601f19601f820116820180604052508101906105ba91906109c0565b9050806105f3576040517f90b8ec1800000000000000000000000000000000000000000000000000000000815260040160405180910390fd5b50505050565b60016020528060005260406000206000915054906101000a900460ff1681565b60008054906101000a900473ffffffffffffffffffffffffffffffffffffffff1681565b60008073ffffffffffffffffffffffffffffffffffffffff168273ffffffffffffffffffffffffffffffffffffffff16036106a4576040517fe6c4247b00000000000000000000000000000000000000000000000000000000815260040160405180910390fd5b8173ffffffffffffffffffffffffffffffffffffffff166370a08231306040518263ffffffff1660e01b81526004016106dd919061092f565b602060405180830381865afa1580156106fa573d6000803e3d6000fd5b505050506040513d601f19601f8201168201806040525081019061071e9190610a2b565b9050919050565b600080fd5b600073ffffffffffffffffffffffffffffffffffffffff82169050919050565b60006107558261072a565b9050919050565b6107658161074a565b811461077057600080fd5b50565b6000813590506107828161075c565b92915050565b6000819050919050565b61079b81610788565b81146107a657600080fd5b50565b6000813590506107b881610792565b92915050565b600080604083850312156107d5576107d4610725565b5b60006107e385828601610773565b92505060206107f4858286016107a9565b9150509250929050565b60008115159050919050565b610813816107fe565b811461081e57600080fd5b50565b6000813590506108308161080a565b92915050565b6000806040838503121561084d5761084c610725565b5b600061085b85828601610773565b925050602061086c85828601610821565b9150509250929050565b60008060006060848603121561088f5761088e610725565b5b600061089d86828701610773565b93505060206108ae86828701610773565b92505060406108bf868287016107a9565b9150509250925092565b6000602082840312156108df576108de610725565b5b60006108ed84828501610773565b91505092915050565b6108ff816107fe565b82525050565b600060208201905061091a60008301846108f6565b92915050565b6109298161074a565b82525050565b60006020820190506109446000830184610920565b92915050565b61095381610788565b82525050565b600060208201905061096e600083018461094a565b92915050565b60006060820190506109896000830186610920565b6109966020830185610920565b6109a3604083018461094a565b949350505050565b6000815190506109ba8161080a565b92915050565b6000602082840312156109d6576109d5610725565b5b60006109e4848285016109ab565b91505092915050565b6000604082019050610a026000830185610920565b610a0f602083018461094a565b9392505050565b600081519050610a2581610792565b92915050565b600060208284031215610a4157610a40610725565b5b6000610a4f84828501610a16565b9150509291505056fea264697066735822122063cbf5576691dc40f87a0ca0c0606abedba32c24a2975091e1b52e20913baf7164736f6c63430008140033608060405234801561001057600080fd5b5060405162000e2338038062000e23833981810160405281019061003491906101bd565b600073ffffffffffffffffffffffffffffffffffffffff168273ffffffffffffffffffffffffffffffffffffffff16148061009b5750600073ffffffffffffffffffffffffffffffffffffffff168173ffffffffffffffffffffffffffffffffffffffff16145b156100d2576040517fe6c4247b00000000000000000000000000000000000000000000000000000000815260040160405180910390fd5b816000806101000a81548173ffffffffffffffffffffffffffffffffffffffff021916908373ffffffffffffffffffffffffffffffffffffffff16021790555080600160006101000a81548173ffffffffffffffffffffffffffffffffffffffff021916908373ffffffffffffffffffffffffffffffffffffffff16021790555050506101fd565b600080fd5b600073ffffffffffffffffffffffffffffffffffffffff82169050919050565b600061018a8261015f565b9050919050565b61019a8161017f565b81146101a557600080fd5b50565b6000815190506101b781610191565b92915050565b600080604083850312156101d4576101d361015a565b5b60006101e2858286016101a8565b92505060206101f3858286016101a8565b9150509250929050565b610c16806200020d6000396000f3fe608060405234801561001057600080fd5b50600436106100625760003560e01c80630505c8c914610067578063162a0cf81461008557806362d778ae146100a157806387d81789146100d1578063aafab1e814610105578063fbfa77cf14610123575b600080fd5b61006f610141565b60405161007c9190610853565b60405180910390f35b61009f600480360381019061009a91906108a9565b610167565b005b6100bb60048036038101906100b69190610914565b610468565b6040516100c8919061098a565b60405180910390f35b6100eb60048036038101906100e691906108a9565b610710565b6040516100fc9594939291906109cf565b60405180910390f35b61010d6107a3565b60405161011a919061098a565b60405180910390f35b61012b6107b0565b6040516101389190610a43565b60405180910390f35b600160009054906101000a900473ffffffffffffffffffffffffffffffffffffffff1681565b60028054905081106101a5576040517fb11be8c400000000000000000000000000000000000000000000000000000000815260040160405180910390fd5b6000600282815481106101bb576101ba610a5e565b5b906000526020600020906005020190508060040160009054906101000a900460ff1615610214576040517f0dc1019700000000000000000000000000000000000000000000000000000000815260040160405180910390fd5b8060030154421015610252576040517f7d5fa48800000000000000000000000000000000000000000000000000000000815260040160405180910390fd5b600160009054906101000a900473ffffffffffffffffffffffffffffffffffffffff1673ffffffffffffffffffffffffffffffffffffffff166376313e568260000160009054906101000a900473ffffffffffffffffffffffffffffffffffffffff1683600201548460010160009054906101000a900473ffffffffffffffffffffffffffffffffffffffff166040518463ffffffff1660e01b81526004016102fd93929190610a8d565b602060405180830381865afa15801561031a573d6000803e3d6000fd5b505050506040513d601f19601f8201168201806040525081019061033e9190610af0565b5060008054906101000a900473ffffffffffffffffffffffffffffffffffffffff1673ffffffffffffffffffffffffffffffffffffffff16638bfb07c98260000160009054906101000a900473ffffffffffffffffffffffffffffffffffffffff168360010160009054906101000a900473ffffffffffffffffffffffffffffffffffffffff1684600201546040518463ffffffff1660e01b81526004016103e893929190610b1d565b600060405180830381600087803b15801561040257600080fd5b505af1158015610416573d6000803e3d6000fd5b5050505060018160040160006101000a81548160ff021916908315150217905550817f2cf6e39c4fd468d6db1351b49285bf581266eef03ee0619df3ae93af0e62e7d760405160405180910390a25050565b60008073ffffffffffffffffffffffffffffffffffffffff168573ffffffffffffffffffffffffffffffffffffffff1614806104d05750600073ffffffffffffffffffffffffffffffffffffffff168473ffffffffffffffffffffffffffffffffffffffff16145b15610507576040517fe6c4247b00000000000000000000000000000000000000000000000000000000815260040160405180910390fd5b60008303610541576040517f2c5211c600000000000000000000000000000000000000000000000000000000815260040160405180910390fd5b60026040518060a001604052808773ffffffffffffffffffffffffffffffffffffffff1681526020018673ffffffffffffffffffffffffffffffffffffffff16815260200185815260200184815260200160001515815250908060018154018082558091505060019003906000526020600020906005020160009091909190915060008201518160000160006101000a81548173ffffffffffffffffffffffffffffffffffffffff021916908373ffffffffffffffffffffffffffffffffffffffff16021790555060208201518160010160006101000a81548173ffffffffffffffffffffffffffffffffffffffff021916908373ffffffffffffffffffffffffffffffffffffffff160217905550604082015181600201556060820151816003015560808201518160040160006101000a81548160ff02191690831515021790555050506000600160028054905061069a9190610b83565b90508473ffffffffffffffffffffffffffffffffffffffff168673ffffffffffffffffffffffffffffffffffffffff16827fd361c29da35db0d9dc8512d72692d9f5204dc704e91ab1d8d28359f08164c63e87876040516106fc929190610bb7565b60405180910390a480915050949350505050565b6002818154811061072057600080fd5b90600052602060002090600502016000915090508060000160009054906101000a900473ffffffffffffffffffffffffffffffffffffffff16908060010160009054906101000a900473ffffffffffffffffffffffffffffffffffffffff16908060020154908060030154908060040160009054906101000a900460ff16905085565b6000600280549050905090565b60008054906101000a900473ffffffffffffffffffffffffffffffffffffffff1681565b600073ffffffffffffffffffffffffffffffffffffffff82169050919050565b6000819050919050565b600061081961081461080f846107d4565b6107f4565b6107d4565b9050919050565b600061082b826107fe565b9050919050565b600061083d82610820565b9050919050565b61084d81610832565b82525050565b60006020820190506108686000830184610844565b92915050565b600080fd5b6000819050919050565b61088681610873565b811461089157600080fd5b50565b6000813590506108a38161087d565b92915050565b6000602082840312156108bf576108be61086e565b5b60006108cd84828501610894565b91505092915050565b60006108e1826107d4565b9050919050565b6108f1816108d6565b81146108fc57600080fd5b50565b60008135905061090e816108e8565b92915050565b6000806000806080858703121561092e5761092d61086e565b5b600061093c878288016108ff565b945050602061094d878288016108ff565b935050604061095e87828801610894565b925050606061096f87828801610894565b91505092959194509250565b61098481610873565b82525050565b600060208201905061099f600083018461097b565b92915050565b6109ae816108d6565b82525050565b60008115159050919050565b6109c9816109b4565b82525050565b600060a0820190506109e460008301886109a5565b6109f160208301876109a5565b6109fe604083018661097b565b610a0b606083018561097b565b610a1860808301846109c0565b9695505050505050565b6000610a2d82610820565b9050919050565b610a3d81610a22565b82525050565b6000602082019050610a586000830184610a34565b92915050565b7f4e487b7100000000000000000000000000000000000000000000000000000000600052603260045260246000fd5b6000606082019050610aa260008301866109a5565b610aaf602083018561097b565b610abc60408301846109a5565b949350505050565b610acd816109b4565b8114610ad857600080fd5b50565b600081519050610aea81610ac4565b92915050565b600060208284031215610b0657610b0561086e565b5b6000610b1484828501610adb565b91505092915050565b6000606082019050610b3260008301866109a5565b610b3f60208301856109a5565b610b4c604083018461097b565b949350505050565b7f4e487b7100000000000000000000000000000000000000000000000000000000600052601160045260246000fd5b6000610b8e82610873565b9150610b9983610873565b9250828203905081811115610bb157610bb0610b54565b5b92915050565b6000604082019050610bcc600083018561097b565b610bd9602083018461097b565b939250505056fea2646970667358221220ea80adfa2b3b84d1d762258503cf26393873bfecb5afa3671356c463c2f2a76b64736f6c63430008140033",
  "linkReferences": {},
  "deployedLinkReferences": {}
}